Component: ARM Compiler 5.06 update 6 (build 750) Tool: armlink [4d35ed]

==============================================================================

Section Cross References

    startup_stm32f103xb.o(RESET) refers to startup_stm32f103xb.o(STACK) for __initial_sp
    startup_stm32f103xb.o(RESET) refers to startup_stm32f103xb.o(.text) for Reset_Handler
    startup_stm32f103xb.o(RESET) refers to stm32f1xx_it.o(i.NMI_Handler) for NMI_Handler
    startup_stm32f103xb.o(RESET) refers to stm32f1xx_it.o(i.HardFault_Handler) for HardFault_Handler
    startup_stm32f103xb.o(RESET) refers to stm32f1xx_it.o(i.MemManage_Handler) for MemManage_Handler
    startup_stm32f103xb.o(RESET) refers to stm32f1xx_it.o(i.BusFault_Handler) for BusFault_Handler
    startup_stm32f103xb.o(RESET) refers to stm32f1xx_it.o(i.UsageFault_Handler) for UsageFault_Handler
    startup_stm32f103xb.o(RESET) refers to stm32f1xx_it.o(i.SVC_Handler) for SVC_Handler
    startup_stm32f103xb.o(RESET) refers to stm32f1xx_it.o(i.DebugMon_Handler) for DebugMon_Handler
    startup_stm32f103xb.o(RESET) refers to stm32f1xx_it.o(i.PendSV_Handler) for PendSV_Handler
    startup_stm32f103xb.o(RESET) refers to stm32f1xx_it.o(i.SysTick_Handler) for SysTick_Handler
    startup_stm32f103xb.o(RESET) refers to stm32f1xx_it.o(i.USB_LP_CAN1_RX0_IRQHandler) for USB_LP_CAN1_RX0_IRQHandler
    startup_stm32f103xb.o(RESET) refers to stm32f1xx_it.o(i.TIM2_IRQHandler) for TIM2_IRQHandler
    startup_stm32f103xb.o(RESET) refers to stm32f1xx_it.o(i.EXTI15_10_IRQHandler) for EXTI15_10_IRQHandler
    startup_stm32f103xb.o(.text) refers to system_stm32f1xx.o(i.SystemInit) for SystemInit
    startup_stm32f103xb.o(.text) refers to entry.o(.ARM.Collect$$$$00000000) for __main
    oled.o(i.I2C_Start) refers to stm32f1xx_hal_gpio.o(i.HAL_GPIO_WritePin) for HAL_GPIO_WritePin
    oled.o(i.I2C_Start) refers to oled.o(i.IIC_delay) for IIC_delay
==============================================================================

Removing Unused input sections from the image.

    Removing startup_stm32f103xb.o(HEAP), (512 bytes).
    Removing oled.o(.rev16_text), (4 bytes).
    Removing oled.o(.revsh_text), (4 bytes).
    Removing oled.o(.rrx_text), (6 bytes).
    Removing oled.o(i.OLED_Clear_part), (48 bytes).
    Removing oled.o(i.OLED_Clear_part2), (48 bytes).
    Removing oled.o(i.OLED_DisPlay_Off), (30 bytes).
    Removing oled.o(i.OLED_DisPlay_On), (30 bytes).
    Removing oled.o(i.OLED_DrawCircle), (196 bytes).
    Removing oled.o(i.OLED_DrawLine), (156 bytes).
    Removing oled.o(i.OLED_ScrollDisplay), (160 bytes).
    Removing oled.o(i.OLED_ShowChinese), (208 bytes).
    Removing oled.o(i.OLED_ShowPicture), (156 bytes).
    Removing menu.o(.rev16_text), (4 bytes).
    Removing menu.o(.revsh_text), (4 bytes).
    Removing menu.o(.rrx_text), (6 bytes).
    Removing main.o(.rev16_text), (4 bytes).
    Removing main.o(.revsh_text), (4 bytes).
==============================================================================

Image Symbol Table

    Local Symbols

    Symbol Name                              Value     Ov Type        Size  Object(Section)

    ../Core/Src/can.c                        0x00000000   Number         0  can.o ABSOLUTE
    ../Core/Src/gpio.c                       0x00000000   Number         0  gpio.o ABSOLUTE
    ../Core/Src/main.c                       0x00000000   Number         0  main.o ABSOLUTE
    ../Core/Src/stm32f1xx_hal_msp.c          0x00000000   Number         0  stm32f1xx_hal_msp.o ABSOLUTE
    ../Core/Src/stm32f1xx_it.c               0x00000000   Number         0  stm32f1xx_it.o ABSOLUTE
    ../Core/Src/system_stm32f1xx.c           0x00000000   Number         0  system_stm32f1xx.o ABSOLUTE
    ../Core/Src/tim.c                        0x00000000   Number         0  tim.o ABSOLUTE
    ../Core/Src/usart.c                      0x00000000   Number         0  usart.o ABSOLUTE
    ../Drivers/STM32F1xx_HAL_Driver/Src/stm32f1xx_hal.c 0x00000000   Number         0  stm32f1xx_hal.o ABSOLUTE
    ../Drivers/STM32F1xx_HAL_Driver/Src/stm32f1xx_hal_can.c 0x00000000   Number         0  stm32f1xx_hal_can.o ABSOLUTE
    ../Drivers/STM32F1xx_HAL_Driver/Src/stm32f1xx_hal_cortex.c 0x00000000   Number         0  stm32f1xx_hal_cortex.o ABSOLUTE
    ../Drivers/STM32F1xx_HAL_Driver/Src/stm32f1xx_hal_dma.c 0x00000000   Number         0  stm32f1xx_hal_dma.o ABSOLUTE
    ../Drivers/STM32F1xx_HAL_Driver/Src/stm32f1xx_hal_exti.c 0x00000000   Number         0  stm32f1xx_hal_exti.o ABSOLUTE
    ../Drivers/STM32F1xx_HAL_Driver/Src/stm32f1xx_hal_flash.c 0x00000000   Number         0  stm32f1xx_hal_flash.o ABSOLUTE
    ../Drivers/STM32F1xx_HAL_Driver/Src/stm32f1xx_hal_flash_ex.c 0x00000000   Number         0  stm32f1xx_hal_flash_ex.o ABSOLUTE
    ../Drivers/STM32F1xx_HAL_Driver/Src/stm32f1xx_hal_gpio.c 0x00000000   Number         0  stm32f1xx_hal_gpio.o ABSOLUTE
    ../Drivers/STM32F1xx_HAL_Driver/Src/stm32f1xx_hal_gpio_ex.c 0x00000000   Number         0  stm32f1xx_hal_gpio_ex.o ABSOLUTE
    ../Drivers/STM32F1xx_HAL_Driver/Src/stm32f1xx_hal_pwr.c 0x00000000   Number         0  stm32f1xx_hal_pwr.o ABSOLUTE
    ../Drivers/STM32F1xx_HAL_Driver/Src/stm32f1xx_hal_rcc.c 0x00000000   Number         0  stm32f1xx_hal_rcc.o ABSOLUTE
    ../Drivers/STM32F1xx_HAL_Driver/Src/stm32f1xx_hal_rcc_ex.c 0x00000000   Number         0  stm32f1xx_hal_rcc_ex.o ABSOLUTE
    ../Drivers/STM32F1xx_HAL_Driver/Src/stm32f1xx_hal_tim.c 0x00000000   Number         0  stm32f1xx_hal_tim.o ABSOLUTE
    ../Drivers/STM32F1xx_HAL_Driver/Src/stm32f1xx_hal_tim_ex.c 0x00000000   Number         0  stm32f1xx_hal_tim_ex.o ABSOLUTE
    ../Drivers/STM32F1xx_HAL_Driver/Src/stm32f1xx_hal_uart.c 0x00000000   Number         0  stm32f1xx_hal_uart.o ABSOLUTE
    ../clib/../cmprslib/zerorunl2.c          0x00000000   Number         0  __dczerorl2.o ABSOLUTE
    ../clib/microlib/division.c              0x00000000   Number         0  uldiv.o ABSOLUTE
    ../clib/microlib/division.c              0x00000000   Number         0  uidiv.o ABSOLUTE
    ../clib/microlib/init/entry.s            0x00000000   Number         0  entry10a.o ABSOLUTE
    ../clib/microlib/init/entry.s            0x00000000   Number         0  entry9b.o ABSOLUTE
    ../clib/microlib/init/entry.s            0x00000000   Number         0  entry9a.o ABSOLUTE
    ../clib/microlib/init/entry.s            0x00000000   Number         0  entry8b.o ABSOLUTE
    ../clib/microlib/init/entry.s            0x00000000   Number         0  entry8a.o ABSOLUTE
    ../clib/microlib/init/entry.s            0x00000000   Number         0  entry7a.o ABSOLUTE
    ../clib/microlib/init/entry.s            0x00000000   Number         0  entry11a.o ABSOLUTE
    ../clib/microlib/init/entry.s            0x00000000   Number         0  entry7b.o ABSOLUTE
    ../clib/microlib/init/entry.s            0x00000000   Number         0  entry5.o ABSOLUTE
    ../clib/microlib/init/entry.s            0x00000000   Number         0  entry2.o ABSOLUTE
    ../clib/microlib/init/entry.s            0x00000000   Number         0  entry.o ABSOLUTE
    ../clib/microlib/init/entry.s            0x00000000   Number         0  entry11b.o ABSOLUTE
    ../clib/microlib/init/entry.s            0x00000000   Number         0  entry10b.o ABSOLUTE
    ../clib/microlib/longlong.c              0x00000000   Number         0  llshl.o ABSOLUTE
    ../clib/microlib/longlong.c              0x00000000   Number         0  llushr.o ABSOLUTE
    ../clib/microlib/longlong.c              0x00000000   Number         0  llsshr.o ABSOLUTE
    ../clib/microlib/printf/printf.c         0x00000000   Number         0  printfa.o ABSOLUTE
    ../clib/microlib/printf/printf.c         0x00000000   Number         0  printf7.o ABSOLUTE
    ../clib/microlib/printf/printf.c         0x00000000   Number         0  printf6.o ABSOLUTE
    ../clib/microlib/printf/printf.c         0x00000000   Number         0  printf5.o ABSOLUTE
    ../clib/microlib/printf/printf.c         0x00000000   Number         0  printf4.o ABSOLUTE
    ../clib/microlib/printf/printf.c         0x00000000   Number         0  printf3.o ABSOLUTE
    ../clib/microlib/printf/printf.c         0x00000000   Number         0  printf0.o ABSOLUTE
    ../clib/microlib/printf/printf.c         0x00000000   Number         0  printf2.o ABSOLUTE
    ../clib/microlib/printf/printf.c         0x00000000   Number         0  printf1.o ABSOLUTE
    ../clib/microlib/printf/printf.c         0x00000000   Number         0  printfb.o ABSOLUTE
    ../clib/microlib/printf/printf.c         0x00000000   Number         0  printf8.o ABSOLUTE
    ../clib/microlib/stdio/streams.c         0x00000000   Number         0  stdout.o ABSOLUTE
    ../clib/microlib/string/memset.c         0x00000000   Number         0  memseta.o ABSOLUTE
    ../clib/microlib/stubs.s                 0x00000000   Number         0  iusefp.o ABSOLUTE
    ../fplib/microlib/fpadd.c                0x00000000   Number         0  dadd.o ABSOLUTE
    ../fplib/microlib/fpdiv.c                0x00000000   Number         0  ddiv.o ABSOLUTE
    ../fplib/microlib/fpepilogue.c           0x00000000   Number         0  depilogue.o ABSOLUTE
    ../fplib/microlib/fpfix.c                0x00000000   Number         0  dfixul.o ABSOLUTE
    ../fplib/microlib/fpmul.c                0x00000000   Number         0  dmul.o ABSOLUTE
    ..\Core\Src\can.c                        0x00000000   Number         0  can.o ABSOLUTE
    ..\Core\Src\gpio.c                       0x00000000   Number         0  gpio.o ABSOLUTE
    ..\Core\Src\main.c                       0x00000000   Number         0  main.o ABSOLUTE
    ..\Core\Src\stm32f1xx_hal_msp.c          0x00000000   Number         0  stm32f1xx_hal_msp.o ABSOLUTE
    ..\Core\Src\stm32f1xx_it.c               0x00000000   Number         0  stm32f1xx_it.o ABSOLUTE
    ..\Core\Src\system_stm32f1xx.c           0x00000000   Number         0  system_stm32f1xx.o ABSOLUTE
    ..\Core\Src\tim.c                        0x00000000   Number         0  tim.o ABSOLUTE
    ..\Core\Src\usart.c                      0x00000000   Number         0  usart.o ABSOLUTE
    ..\Drivers\STM32F1xx_HAL_Driver\Src\stm32f1xx_hal.c 0x00000000   Number         0  stm32f1xx_hal.o ABSOLUTE
    ..\Drivers\STM32F1xx_HAL_Driver\Src\stm32f1xx_hal_can.c 0x00000000   Number         0  stm32f1xx_hal_can.o ABSOLUTE
    ..\Drivers\STM32F1xx_HAL_Driver\Src\stm32f1xx_hal_cortex.c 0x00000000   Number         0  stm32f1xx_hal_cortex.o ABSOLUTE
    ..\Drivers\STM32F1xx_HAL_Driver\Src\stm32f1xx_hal_dma.c 0x00000000   Number         0  stm32f1xx_hal_dma.o ABSOLUTE
    ..\Drivers\STM32F1xx_HAL_Driver\Src\stm32f1xx_hal_exti.c 0x00000000   Number         0  stm32f1xx_hal_exti.o ABSOLUTE
    ..\Drivers\STM32F1xx_HAL_Driver\Src\stm32f1xx_hal_flash.c 0x00000000   Number         0  stm32f1xx_hal_flash.o ABSOLUTE
    ..\Drivers\STM32F1xx_HAL_Driver\Src\stm32f1xx_hal_flash_ex.c 0x00000000   Number         0  stm32f1xx_hal_flash_ex.o ABSOLUTE
    ..\Drivers\STM32F1xx_HAL_Driver\Src\stm32f1xx_hal_gpio.c 0x00000000   Number         0  stm32f1xx_hal_gpio.o ABSOLUTE
    ..\Drivers\STM32F1xx_HAL_Driver\Src\stm32f1xx_hal_gpio_ex.c 0x00000000   Number         0  stm32f1xx_hal_gpio_ex.o ABSOLUTE
    ..\Drivers\STM32F1xx_HAL_Driver\Src\stm32f1xx_hal_pwr.c 0x00000000   Number         0  stm32f1xx_hal_pwr.o ABSOLUTE
    ..\Drivers\STM32F1xx_HAL_Driver\Src\stm32f1xx_hal_rcc.c 0x00000000   Number         0  stm32f1xx_hal_rcc.o ABSOLUTE
    ..\Drivers\STM32F1xx_HAL_Driver\Src\stm32f1xx_hal_rcc_ex.c 0x00000000   Number         0  stm32f1xx_hal_rcc_ex.o ABSOLUTE
    ..\Drivers\STM32F1xx_HAL_Driver\Src\stm32f1xx_hal_tim.c 0x00000000   Number         0  stm32f1xx_hal_tim.o ABSOLUTE
    ..\Drivers\STM32F1xx_HAL_Driver\Src\stm32f1xx_hal_tim_ex.c 0x00000000   Number         0  stm32f1xx_hal_tim_ex.o ABSOLUTE
    ..\Drivers\STM32F1xx_HAL_Driver\Src\stm32f1xx_hal_uart.c 0x00000000   Number         0  stm32f1xx_hal_uart.o ABSOLUTE
    cdrcmple.s                               0x00000000   Number         0  cdrcmple.o ABSOLUTE
    dc.s                                     0x00000000   Number         0  dc.o ABSOLUTE
    handlers.s                               0x00000000   Number         0  handlers.o ABSOLUTE
    init.s                                   0x00000000   Number         0  init.o ABSOLUTE
    key.c                                    0x00000000   Number         0  key.o ABSOLUTE
    menu.c                                   0x00000000   Number         0  menu.o ABSOLUTE
    menu.c                                   0x00000000   Number         0  menu.o ABSOLUTE
    oled.c                                   0x00000000   Number         0  oled.o ABSOLUTE
    oled.c                                   0x00000000   Number         0  oled.o ABSOLUTE
    startup_stm32f103xb.s                    0x00000000   Number         0  startup_stm32f103xb.o ABSOLUTE
    RESET                                    0x08000000   Section      236  startup_stm32f103xb.o(RESET)
    .ARM.Collect$$$$00000000                 0x080000ec   Section        0  entry.o(.ARM.Collect$$$$00000000)
    .ARM.Collect$$$$00000001                 0x080000ec   Section        4  entry2.o(.ARM.Collect$$$$00000001)
    .ARM.Collect$$$$00000004                 0x080000f0   Section        4  entry5.o(.ARM.Collect$$$$00000004)
    .ARM.Collect$$$$00000008                 0x080000f4   Section        0  entry7b.o(.ARM.Collect$$$$00000008)
    .ARM.Collect$$$$0000000A                 0x080000f4   Section        0  entry8b.o(.ARM.Collect$$$$0000000A)
    .ARM.Collect$$$$0000000B                 0x080000f4   Section        8  entry9a.o(.ARM.Collect$$$$0000000B)
    .ARM.Collect$$$$0000000D                 0x080000fc   Section        0  entry10a.o(.ARM.Collect$$$$0000000D)
    .ARM.Collect$$$$0000000F                 0x080000fc   Section        0  entry11a.o(.ARM.Collect$$$$0000000F)
    .ARM.Collect$$$$00002712                 0x080000fc   Section        4  entry2.o(.ARM.Collect$$$$00002712)
    __lit__00000000                          0x080000fc   Data           4  entry2.o(.ARM.Collect$$$$00002712)
    .text                                    0x08000100   Section       36  startup_stm32f103xb.o(.text)
    .text                                    0x08000124   Section        0  memseta.o(.text)
    .text                                    0x08000148   Section       36  init.o(.text)
    .text                                    0x0800016c   Section        0  __dczerorl2.o(.text)
    i.BusFault_Handler                       0x080001c2   Section        0  stm32f1xx_it.o(i.BusFault_Handler)
    i.DebugMon_Handler                       0x080001c4   Section        0  stm32f1xx_it.o(i.DebugMon_Handler)
    i.EXTI15_10_IRQHandler                   0x080001c6   Section        0  stm32f1xx_it.o(i.EXTI15_10_IRQHandler)
    i.Error_Handler                          0x080001dc   Section        0  main.o(i.Error_Handler)
    i.HAL_CAN_ActivateNotification           0x080001de   Section        0  stm32f1xx_hal_can.o(i.HAL_CAN_ActivateNotification)
    i.HAL_CAN_AddTxMessage                   0x08000202   Section        0  stm32f1xx_hal_can.o(i.HAL_CAN_AddTxMessage)
    i.HAL_CAN_ConfigFilter                   0x080002cc   Section        0  stm32f1xx_hal_can.o(i.HAL_CAN_ConfigFilter)
    i.HAL_CAN_ErrorCallback                  0x080003ba   Section        0  stm32f1xx_hal_can.o(i.HAL_CAN_ErrorCallback)
    i.HAL_CAN_GetRxMessage                   0x080003bc   Section        0  stm32f1xx_hal_can.o(i.HAL_CAN_GetRxMessage)
    i.HAL_CAN_IRQHandler                     0x080004a4   Section        0  stm32f1xx_hal_can.o(i.HAL_CAN_IRQHandler)
    i.HAL_CAN_Init                           0x080006a0   Section        0  stm32f1xx_hal_can.o(i.HAL_CAN_Init)
    i.HAL_CAN_MspInit                        0x080007bc   Section        0  can.o(i.HAL_CAN_MspInit)
    i.HAL_CAN_RxFifo0FullCallback            0x08000838   Section        0  stm32f1xx_hal_can.o(i.HAL_CAN_RxFifo0FullCallback)
    i.HAL_CAN_RxFifo0MsgPendingCallback      0x0800083c   Section        0  main.o(i.HAL_CAN_RxFifo0MsgPendingCallback)
    i.HAL_CAN_RxFifo1FullCallback            0x080008b8   Section        0  stm32f1xx_hal_can.o(i.HAL_CAN_RxFifo1FullCallback)
    i.HAL_CAN_RxFifo1MsgPendingCallback      0x080008ba   Section        0  stm32f1xx_hal_can.o(i.HAL_CAN_RxFifo1MsgPendingCallback)
    i.HAL_CAN_SleepCallback                  0x080008bc   Section        0  stm32f1xx_hal_can.o(i.HAL_CAN_SleepCallback)
    i.HAL_CAN_Start                          0x080008c0   Section        0  stm32f1xx_hal_can.o(i.HAL_CAN_Start)
    i.HAL_CAN_TxMailbox0AbortCallback        0x08000918   Section        0  stm32f1xx_hal_can.o(i.HAL_CAN_TxMailbox0AbortCallback)
    i.HAL_CAN_TxMailbox0CompleteCallback     0x0800091a   Section        0  stm32f1xx_hal_can.o(i.HAL_CAN_TxMailbox0CompleteCallback)
    i.HAL_CAN_TxMailbox1AbortCallback        0x0800091c   Section        0  stm32f1xx_hal_can.o(i.HAL_CAN_TxMailbox1AbortCallback)
    i.HAL_CAN_TxMailbox1CompleteCallback     0x0800091e   Section        0  stm32f1xx_hal_can.o(i.HAL_CAN_TxMailbox1CompleteCallback)
    i.HAL_CAN_TxMailbox2AbortCallback        0x08000920   Section        0  stm32f1xx_hal_can.o(i.HAL_CAN_TxMailbox2AbortCallback)
    i.HAL_CAN_TxMailbox2CompleteCallback     0x08000922   Section        0  stm32f1xx_hal_can.o(i.HAL_CAN_TxMailbox2CompleteCallback)
    i.HAL_CAN_WakeUpFromRxMsgCallback        0x08000924   Section        0  stm32f1xx_hal_can.o(i.HAL_CAN_WakeUpFromRxMsgCallback)
    i.HAL_Delay                              0x08000928   Section        0  stm32f1xx_hal.o(i.HAL_Delay)
    i.HAL_GPIO_EXTI_Callback                 0x0800094c   Section        0  stm32f1xx_hal_gpio.o(i.HAL_GPIO_EXTI_Callback)
    i.HAL_GPIO_EXTI_IRQHandler               0x08000950   Section        0  stm32f1xx_hal_gpio.o(i.HAL_GPIO_EXTI_IRQHandler)
    i.HAL_GPIO_Init                          0x08000968   Section        0  stm32f1xx_hal_gpio.o(i.HAL_GPIO_Init)
    i.HAL_GPIO_ReadPin                       0x08000b48   Section        0  stm32f1xx_hal_gpio.o(i.HAL_GPIO_ReadPin)
    i.HAL_GPIO_TogglePin                     0x08000b52   Section        0  stm32f1xx_hal_gpio.o(i.HAL_GPIO_TogglePin)
    i.HAL_GPIO_WritePin                      0x08000b60   Section        0  stm32f1xx_hal_gpio.o(i.HAL_GPIO_WritePin)
    i.HAL_GetTick                            0x08000b6c   Section        0  stm32f1xx_hal.o(i.HAL_GetTick)
    i.HAL_IncTick                            0x08000b78   Section        0  stm32f1xx_hal.o(i.HAL_IncTick)
    i.HAL_Init                               0x08000b88   Section        0  stm32f1xx_hal.o(i.HAL_Init)
    i.HAL_InitTick                           0x08000bac   Section        0  stm32f1xx_hal.o(i.HAL_InitTick)
    i.HAL_MspInit                            0x08000bec   Section        0  stm32f1xx_hal_msp.o(i.HAL_MspInit)
    i.HAL_NVIC_EnableIRQ                     0x08000c28   Section        0  stm32f1xx_hal_cortex.o(i.HAL_NVIC_EnableIRQ)
    i.HAL_NVIC_SetPriority                   0x08000c44   Section        0  stm32f1xx_hal_cortex.o(i.HAL_NVIC_SetPriority)
    i.HAL_NVIC_SetPriorityGrouping           0x08000c84   Section        0  stm32f1xx_hal_cortex.o(i.HAL_NVIC_SetPriorityGrouping)
    i.HAL_RCC_ClockConfig                    0x08000ca8   Section        0  stm32f1xx_hal_rcc.o(i.HAL_RCC_ClockConfig)
    i.HAL_RCC_GetPCLK1Freq                   0x08000dd4   Section        0  stm32f1xx_hal_rcc.o(i.HAL_RCC_GetPCLK1Freq)
    i.HAL_RCC_GetPCLK2Freq                   0x08000df4   Section        0  stm32f1xx_hal_rcc.o(i.HAL_RCC_GetPCLK2Freq)
    i.HAL_RCC_GetSysClockFreq                0x08000e14   Section        0  stm32f1xx_hal_rcc.o(i.HAL_RCC_GetSysClockFreq)
    i.HAL_RCC_OscConfig                      0x08000e80   Section        0  stm32f1xx_hal_rcc.o(i.HAL_RCC_OscConfig)
    i.HAL_SYSTICK_Config                     0x080011a0   Section        0  stm32f1xx_hal_cortex.o(i.HAL_SYSTICK_Config)
    i.HAL_TIMEx_BreakCallback                0x080011c8   Section        0  stm32f1xx_hal_tim_ex.o(i.HAL_TIMEx_BreakCallback)
    i.HAL_TIMEx_CommutCallback               0x080011ca   Section        0  stm32f1xx_hal_tim_ex.o(i.HAL_TIMEx_CommutCallback)
    i.HAL_TIMEx_MasterConfigSynchronization  0x080011cc   Section        0  stm32f1xx_hal_tim_ex.o(i.HAL_TIMEx_MasterConfigSynchronization)
    i.HAL_TIM_Base_Init                      0x0800120e   Section        0  stm32f1xx_hal_tim.o(i.HAL_TIM_Base_Init)
    i.HAL_TIM_Base_MspInit                   0x08001244   Section        0  tim.o(i.HAL_TIM_Base_MspInit)
    i.HAL_TIM_Base_Start_IT                  0x080012b4   Section        0  stm32f1xx_hal_tim.o(i.HAL_TIM_Base_Start_IT)
    i.HAL_TIM_ConfigClockSource              0x080012d6   Section        0  stm32f1xx_hal_tim.o(i.HAL_TIM_ConfigClockSource)
    i.HAL_TIM_IC_CaptureCallback             0x080013ac   Section        0  stm32f1xx_hal_tim.o(i.HAL_TIM_IC_CaptureCallback)
    i.HAL_TIM_IRQHandler                     0x080013ae   Section        0  stm32f1xx_hal_tim.o(i.HAL_TIM_IRQHandler)
    i.HAL_TIM_OC_DelayElapsedCallback        0x08001514   Section        0  stm32f1xx_hal_tim.o(i.HAL_TIM_OC_DelayElapsedCallback)
    i.HAL_TIM_PWM_PulseFinishedCallback      0x08001516   Section        0  stm32f1xx_hal_tim.o(i.HAL_TIM_PWM_PulseFinishedCallback)
    i.HAL_TIM_PeriodElapsedCallback          0x08001518   Section        0  tim.o(i.HAL_TIM_PeriodElapsedCallback)
    i.HAL_TIM_TriggerCallback                0x080015c8   Section        0  stm32f1xx_hal_tim.o(i.HAL_TIM_TriggerCallback)
    i.HAL_UART_Init                          0x080015ca   Section        0  stm32f1xx_hal_uart.o(i.HAL_UART_Init)
    i.HAL_UART_MspInit                       0x0800162c   Section        0  usart.o(i.HAL_UART_MspInit)
    i.HAL_UART_Transmit                      0x080016d8   Section        0  stm32f1xx_hal_uart.o(i.HAL_UART_Transmit)
    i.HardFault_Handler                      0x08001792   Section        0  stm32f1xx_it.o(i.HardFault_Handler)
    i.I2C_Start                              0x08001794   Section        0  oled.o(i.I2C_Start)
    i.I2C_Stop                               0x080017d8   Section        0  oled.o(i.I2C_Stop)
    i.I2C_WaitAck                            0x0800180c   Section        0  oled.o(i.I2C_WaitAck)
    i.IIC_delay                              0x08001844   Section        0  oled.o(i.IIC_delay)
    i.KEY1_StateRead                         0x08001850   Section        0  gpio.o(i.KEY1_StateRead)
    i.KEY2_StateRead                         0x0800188c   Section        0  gpio.o(i.KEY2_StateRead)
    i.MX_CAN_Init                            0x080018c8   Section        0  can.o(i.MX_CAN_Init)
    i.MX_GPIO_Init                           0x0800190c   Section        0  gpio.o(i.MX_GPIO_Init)
    i.MX_TIM2_Init                           0x080019f0   Section        0  tim.o(i.MX_TIM2_Init)
    i.MX_USART1_UART_Init                    0x08001a58   Section        0  usart.o(i.MX_USART1_UART_Init)
    i.MX_USART2_UART_Init                    0x08001a90   Section        0  usart.o(i.MX_USART2_UART_Init)
    i.MemManage_Handler                      0x08001ac8   Section        0  stm32f1xx_it.o(i.MemManage_Handler)
    i.Menu_key_set                           0x08001acc   Section        0  menu.o(i.Menu_key_set)
    i.NMI_Handler                            0x08001b1c   Section        0  stm32f1xx_it.o(i.NMI_Handler)
    i.OLED_Clear                             0x08001b20   Section        0  oled.o(i.OLED_Clear)
    i.OLED_ColorTurn                         0x08001b50   Section        0  oled.o(i.OLED_ColorTurn)
    i.OLED_DrawPoint                         0x08001b68   Section        0  oled.o(i.OLED_DrawPoint)
    i.OLED_Init                              0x08001ba4   Section        0  oled.o(i.OLED_Init)
    i.OLED_Pow                               0x08001c7c   Section        0  oled.o(i.OLED_Pow)
    i.OLED_Refresh                           0x08001c8c   Section        0  oled.o(i.OLED_Refresh)
    i.OLED_ShowChar                          0x08001cf8   Section        0  oled.o(i.OLED_ShowChar)
    i.OLED_ShowNum                           0x08001ddc   Section        0  oled.o(i.OLED_ShowNum)
    i.OLED_ShowString                        0x08001e4a   Section        0  oled.o(i.OLED_ShowString)
    i.OLED_WR_Byte                           0x08001e86   Section        0  oled.o(i.OLED_WR_Byte)
    i.PendSV_Handler                         0x08001ebc   Section        0  stm32f1xx_it.o(i.PendSV_Handler)
    i.SVC_Handler                            0x08001ebe   Section        0  stm32f1xx_it.o(i.SVC_Handler)
    i.Send_Byte                              0x08001ec0   Section        0  oled.o(i.Send_Byte)
    i.SysTick_Handler                        0x08001f14   Section        0  stm32f1xx_it.o(i.SysTick_Handler)
    i.SystemClock_Config                     0x08001f18   Section        0  main.o(i.SystemClock_Config)
    i.SystemInit                             0x08001f68   Section        0  system_stm32f1xx.o(i.SystemInit)
    i.TIM2_IRQHandler                        0x08001fb0   Section        0  stm32f1xx_it.o(i.TIM2_IRQHandler)
    i.TIM_Base_SetConfig                     0x08001fbc   Section        0  stm32f1xx_hal_tim.o(i.TIM_Base_SetConfig)
    i.TIM_ETR_SetConfig                      0x08002028   Section        0  stm32f1xx_hal_tim.o(i.TIM_ETR_SetConfig)
    i.TIM_ITRx_SetConfig                     0x0800203c   Section        0  stm32f1xx_hal_tim.o(i.TIM_ITRx_SetConfig)
    TIM_ITRx_SetConfig                       0x0800203d   Thumb Code    16  stm32f1xx_hal_tim.o(i.TIM_ITRx_SetConfig)
    i.TIM_TI1_ConfigInputStage               0x0800204c   Section        0  stm32f1xx_hal_tim.o(i.TIM_TI1_ConfigInputStage)
    TIM_TI1_ConfigInputStage                 0x0800204d   Thumb Code    34  stm32f1xx_hal_tim.o(i.TIM_TI1_ConfigInputStage)
    i.TIM_TI2_ConfigInputStage               0x0800206e   Section        0  stm32f1xx_hal_tim.o(i.TIM_TI2_ConfigInputStage)
    TIM_TI2_ConfigInputStage                 0x0800206f   Thumb Code    36  stm32f1xx_hal_tim.o(i.TIM_TI2_ConfigInputStage)
    i.UART_SetConfig                         0x08002094   Section        0  stm32f1xx_hal_uart.o(i.UART_SetConfig)
    UART_SetConfig                           0x08002095   Thumb Code   178  stm32f1xx_hal_uart.o(i.UART_SetConfig)
    i.UART_WaitOnFlagUntilTimeout            0x0800214c   Section        0  stm32f1xx_hal_uart.o(i.UART_WaitOnFlagUntilTimeout)
    UART_WaitOnFlagUntilTimeout              0x0800214d   Thumb Code   100  stm32f1xx_hal_uart.o(i.UART_WaitOnFlagUntilTimeout)
    i.USB_LP_CAN1_RX0_IRQHandler             0x080021b0   Section        0  stm32f1xx_it.o(i.USB_LP_CAN1_RX0_IRQHandler)
    i.UsageFault_Handler                     0x080021bc   Section        0  stm32f1xx_it.o(i.UsageFault_Handler)
    i.__0printf$bare                         0x080021c0   Section        0  printfb.o(i.__0printf$bare)
    i.__NVIC_SetPriority                     0x080021d0   Section        0  stm32f1xx_hal_cortex.o(i.__NVIC_SetPriority)
    __NVIC_SetPriority                       0x080021d1   Thumb Code    32  stm32f1xx_hal_cortex.o(i.__NVIC_SetPriority)
    i.__scatterload_copy                     0x080021f0   Section       14  handlers.o(i.__scatterload_copy)
    i.__scatterload_null                     0x080021fe   Section        2  handlers.o(i.__scatterload_null)
    i.__scatterload_zeroinit                 0x08002200   Section       14  handlers.o(i.__scatterload_zeroinit)
    i._printf_core                           0x0800220e   Section        0  printfb.o(i._printf_core)
    _printf_core                             0x0800220f   Thumb Code    34  printfb.o(i._printf_core)
    i.filter0_init                           0x08002230   Section        0  can.o(i.filter0_init)
    i.fputc                                  0x0800226c   Section        0  usart.o(i.fputc)
    i.fun0                                   0x08002284   Section        0  menu.o(i.fun0)
    i.fun1                                   0x08002338   Section        0  menu.o(i.fun1)
    i.fun10                                  0x08002354   Section        0  menu.o(i.fun10)
    i.fun11                                  0x08002370   Section        0  menu.o(i.fun11)
    i.fun12                                  0x0800238c   Section        0  menu.o(i.fun12)
    i.fun13                                  0x080023a8   Section        0  menu.o(i.fun13)
    i.fun14                                  0x080023c4   Section        0  menu.o(i.fun14)
    i.fun15                                  0x080023e0   Section        0  menu.o(i.fun15)
    i.fun16                                  0x080023fc   Section        0  menu.o(i.fun16)
    i.fun17                                  0x08002418   Section        0  menu.o(i.fun17)
    i.fun18                                  0x08002520   Section        0  menu.o(i.fun18)
    i.fun19                                  0x080025ac   Section        0  menu.o(i.fun19)
    i.fun2                                   0x08002684   Section        0  menu.o(i.fun2)
    i.fun20                                  0x080026a0   Section        0  menu.o(i.fun20)
    i.fun21                                  0x080026c4   Section        0  menu.o(i.fun21)
    i.fun22                                  0x080026e8   Section        0  menu.o(i.fun22)
    i.fun23                                  0x0800270c   Section        0  menu.o(i.fun23)
    i.fun24                                  0x08002730   Section        0  menu.o(i.fun24)
    i.fun25                                  0x08002754   Section        0  menu.o(i.fun25)
    i.fun3                                   0x08002778   Section        0  menu.o(i.fun3)
    i.fun4                                   0x08002794   Section        0  menu.o(i.fun4)
    i.fun5                                   0x080027b0   Section        0  menu.o(i.fun5)
    i.fun6                                   0x080027cc   Section        0  menu.o(i.fun6)
    i.fun7                                   0x08002808   Section        0  menu.o(i.fun7)
    i.fun8                                   0x08002824   Section        0  menu.o(i.fun8)
    i.fun9                                   0x08002840   Section        0  menu.o(i.fun9)
    i.main                                   0x0800285c   Section        0  main.o(i.main)
    i.meun1_func                             0x08002920   Section        0  menu.o(i.meun1_func)
    i.meun2_func                             0x0800299c   Section        0  menu.o(i.meun2_func)
    i.meun3_func                             0x08002a20   Section        0  menu.o(i.meun3_func)
    i.meun4_func                             0x08002aa4   Section        0  menu.o(i.meun4_func)
    .constdata                               0x08002b28   Section     7696  oled.o(.constdata)
    .constdata                               0x08004938   Section       16  system_stm32f1xx.o(.constdata)
    .constdata                               0x08004948   Section        8  system_stm32f1xx.o(.constdata)
    .data                                    0x20000000   Section      232  menu.o(.data)
    .data                                    0x200000e8   Section        8  menu.o(.data)
    .data                                    0x200000f0   Section        8  menu.o(.data)
    .data                                    0x200000f8   Section        8  menu.o(.data)
    .data                                    0x20000100   Section        8  menu.o(.data)
    .data                                    0x20000108   Section        8  menu.o(.data)
    .data                                    0x20000110   Section       28  main.o(.data)
    .data                                    0x2000012c   Section        8  main.o(.data)
    .data                                    0x20000134   Section        8  main.o(.data)
    .data                                    0x2000013c   Section        6  tim.o(.data)
    .data                                    0x20000144   Section       12  stm32f1xx_hal.o(.data)
    .data                                    0x20000150   Section        4  system_stm32f1xx.o(.data)
    .data                                    0x20000154   Section        4  stdout.o(.data)
    .bss                                     0x20000158   Section     7680  oled.o(.bss)
    .bss                                     0x20001f58   Section       52  main.o(.bss)
    .bss                                     0x20001f8c   Section       40  can.o(.bss)
    .bss                                     0x20001fb4   Section       64  tim.o(.bss)
    .bss                                     0x20001ff4   Section      128  usart.o(.bss)
    STACK                                    0x20002078   Section     1024  startup_stm32f103xb.o(STACK)

    Global Symbols

    Symbol Name                              Value     Ov Type        Size  Object(Section)

    BuildAttributes$$THM_ISAv4$P$D$K$B$S$PE$A:L22UL41UL21$X:L11$S22US41US21$IEEE1$IW$USESV6$~STKCKD$USESV7$~SHL$OSPACE$ROPI$EBA8$MICROLIB$REQ8$PRES8$EABIv2 0x00000000   Number         0  anon$$obj.o ABSOLUTE
    __ARM_use_no_argv                        0x00000000   Number         0  main.o ABSOLUTE
    __cpp_initialize__aeabi_                  - Undefined Weak Reference
    __cxa_finalize                            - Undefined Weak Reference
    _clock_init                               - Undefined Weak Reference
    _microlib_exit                            - Undefined Weak Reference
    __Vectors_Size                           0x000000ec   Number         0  startup_stm32f103xb.o ABSOLUTE
    __Vectors                                0x08000000   Data           4  startup_stm32f103xb.o(RESET)
    __Vectors_End                            0x080000ec   Data           0  startup_stm32f103xb.o(RESET)
    __main                                   0x080000ed   Thumb Code     0  entry.o(.ARM.Collect$$$$00000000)
    _main_stk                                0x080000ed   Thumb Code     0  entry2.o(.ARM.Collect$$$$00000001)
    _main_scatterload                        0x080000f1   Thumb Code     0  entry5.o(.ARM.Collect$$$$00000004)
    __main_after_scatterload                 0x080000f5   Thumb Code     0  entry5.o(.ARM.Collect$$$$00000004)
    _main_clock                              0x080000f5   Thumb Code     0  entry7b.o(.ARM.Collect$$$$00000008)
    _main_cpp_init                           0x080000f5   Thumb Code     0  entry8b.o(.ARM.Collect$$$$0000000A)
    _main_init                               0x080000f5   Thumb Code     0  entry9a.o(.ARM.Collect$$$$0000000B)
    __rt_final_cpp                           0x080000fd   Thumb Code     0  entry10a.o(.ARM.Collect$$$$0000000D)
    __rt_final_exit                          0x080000fd   Thumb Code     0  entry11a.o(.ARM.Collect$$$$0000000F)
    Reset_Handler                            0x08000101   Thumb Code     8  startup_stm32f103xb.o(.text)
    ADC1_2_IRQHandler                        0x0800011b   Thumb Code     0  startup_stm32f103xb.o(.text)
    CAN1_RX1_IRQHandler                      0x0800011b   Thumb Code     0  startup_stm32f103xb.o(.text)
    CAN1_SCE_IRQHandler                      0x0800011b   Thumb Code     0  startup_stm32f103xb.o(.text)
    DMA1_Channel1_IRQHandler                 0x0800011b   Thumb Code     0  startup_stm32f103xb.o(.text)
    DMA1_Channel2_IRQHandler                 0x0800011b   Thumb Code     0  startup_stm32f103xb.o(.text)
    DMA1_Channel3_IRQHandler                 0x0800011b   Thumb Code     0  startup_stm32f103xb.o(.text)
    DMA1_Channel4_IRQHandler                 0x0800011b   Thumb Code     0  startup_stm32f103xb.o(.text)
    DMA1_Channel5_IRQHandler                 0x0800011b   Thumb Code     0  startup_stm32f103xb.o(.text)
    DMA1_Channel6_IRQHandler                 0x0800011b   Thumb Code     0  startup_stm32f103xb.o(.text)
    DMA1_Channel7_IRQHandler                 0x0800011b   Thumb Code     0  startup_stm32f103xb.o(.text)
    EXTI0_IRQHandler                         0x0800011b   Thumb Code     0  startup_stm32f103xb.o(.text)
    EXTI1_IRQHandler                         0x0800011b   Thumb Code     0  startup_stm32f103xb.o(.text)
    EXTI2_IRQHandler                         0x0800011b   Thumb Code     0  startup_stm32f103xb.o(.text)
    EXTI3_IRQHandler                         0x0800011b   Thumb Code     0  startup_stm32f103xb.o(.text)
    EXTI4_IRQHandler                         0x0800011b   Thumb Code     0  startup_stm32f103xb.o(.text)
    EXTI9_5_IRQHandler                       0x0800011b   Thumb Code     0  startup_stm32f103xb.o(.text)
    FLASH_IRQHandler                         0x0800011b   Thumb Code     0  startup_stm32f103xb.o(.text)
    I2C1_ER_IRQHandler                       0x0800011b   Thumb Code     0  startup_stm32f103xb.o(.text)
    I2C1_EV_IRQHandler                       0x0800011b   Thumb Code     0  startup_stm32f103xb.o(.text)
    I2C2_ER_IRQHandler                       0x0800011b   Thumb Code     0  startup_stm32f103xb.o(.text)
    I2C2_EV_IRQHandler                       0x0800011b   Thumb Code     0  startup_stm32f103xb.o(.text)
    PVD_IRQHandler                           0x0800011b   Thumb Code     0  startup_stm32f103xb.o(.text)
    RCC_IRQHandler                           0x0800011b   Thumb Code     0  startup_stm32f103xb.o(.text)
    RTC_Alarm_IRQHandler                     0x0800011b   Thumb Code     0  startup_stm32f103xb.o(.text)
    RTC_IRQHandler                           0x0800011b   Thumb Code     0  startup_stm32f103xb.o(.text)
    SPI1_IRQHandler                          0x0800011b   Thumb Code     0  startup_stm32f103xb.o(.text)
    SPI2_IRQHandler                          0x0800011b   Thumb Code     0  startup_stm32f103xb.o(.text)
    TAMPER_IRQHandler                        0x0800011b   Thumb Code     0  startup_stm32f103xb.o(.text)
    TIM1_BRK_IRQHandler                      0x0800011b   Thumb Code     0  startup_stm32f103xb.o(.text)
    TIM1_CC_IRQHandler                       0x0800011b   Thumb Code     0  startup_stm32f103xb.o(.text)
    TIM1_TRG_COM_IRQHandler                  0x0800011b   Thumb Code     0  startup_stm32f103xb.o(.text)
    TIM1_UP_IRQHandler                       0x0800011b   Thumb Code     0  startup_stm32f103xb.o(.text)
    TIM3_IRQHandler                          0x0800011b   Thumb Code     0  startup_stm32f103xb.o(.text)
    TIM4_IRQHandler                          0x0800011b   Thumb Code     0  startup_stm32f103xb.o(.text)
    USART1_IRQHandler                        0x0800011b   Thumb Code     0  startup_stm32f103xb.o(.text)
    USART2_IRQHandler                        0x0800011b   Thumb Code     0  startup_stm32f103xb.o(.text)
    USART3_IRQHandler                        0x0800011b   Thumb Code     0  startup_stm32f103xb.o(.text)
    USBWakeUp_IRQHandler                     0x0800011b   Thumb Code     0  startup_stm32f103xb.o(.text)
    USB_HP_CAN1_TX_IRQHandler                0x0800011b   Thumb Code     0  startup_stm32f103xb.o(.text)
    WWDG_IRQHandler                          0x0800011b   Thumb Code     0  startup_stm32f103xb.o(.text)
    __aeabi_memset                           0x08000125   Thumb Code    14  memseta.o(.text)
    __aeabi_memset4                          0x08000125   Thumb Code     0  memseta.o(.text)
    __aeabi_memset8                          0x08000125   Thumb Code     0  memseta.o(.text)
    __aeabi_memclr                           0x08000133   Thumb Code     4  memseta.o(.text)
    __aeabi_memclr4                          0x08000133   Thumb Code     0  memseta.o(.text)
    __aeabi_memclr8                          0x08000133   Thumb Code     0  memseta.o(.text)
    _memset$wrapper                          0x08000137   Thumb Code    18  memseta.o(.text)
    __scatterload                            0x08000149   Thumb Code    28  init.o(.text)
    __scatterload_rt2                        0x08000149   Thumb Code     0  init.o(.text)
    __decompress                             0x0800016d   Thumb Code     0  __dczerorl2.o(.text)
    __decompress1                            0x0800016d   Thumb Code    86  __dczerorl2.o(.text)
    BusFault_Handler                         0x080001c3   Thumb Code     2  stm32f1xx_it.o(i.BusFault_Handler)
    DebugMon_Handler                         0x080001c5   Thumb Code     2  stm32f1xx_it.o(i.DebugMon_Handler)
    EXTI15_10_IRQHandler                     0x080001c7   Thumb Code    22  stm32f1xx_it.o(i.EXTI15_10_IRQHandler)
    Error_Handler                            0x080001dd   Thumb Code     2  main.o(i.Error_Handler)
    HAL_CAN_ActivateNotification             0x080001df   Thumb Code    36  stm32f1xx_hal_can.o(i.HAL_CAN_ActivateNotification)
    HAL_CAN_AddTxMessage                     0x08000203   Thumb Code   200  stm32f1xx_hal_can.o(i.HAL_CAN_AddTxMessage)
    HAL_CAN_ConfigFilter                     0x080002cd   Thumb Code   238  stm32f1xx_hal_can.o(i.HAL_CAN_ConfigFilter)
    HAL_CAN_ErrorCallback                    0x080003bb   Thumb Code     2  stm32f1xx_hal_can.o(i.HAL_CAN_ErrorCallback)
    HAL_CAN_GetRxMessage                     0x080003bd   Thumb Code   232  stm32f1xx_hal_can.o(i.HAL_CAN_GetRxMessage)
    HAL_CAN_IRQHandler                       0x080004a5   Thumb Code   508  stm32f1xx_hal_can.o(i.HAL_CAN_IRQHandler)
    HAL_CAN_Init                             0x080006a1   Thumb Code   282  stm32f1xx_hal_can.o(i.HAL_CAN_Init)
    HAL_CAN_MspInit                          0x080007bd   Thumb Code   112  can.o(i.HAL_CAN_MspInit)
    HAL_CAN_RxFifo0FullCallback              0x08000839   Thumb Code     2  stm32f1xx_hal_can.o(i.HAL_CAN_RxFifo0FullCallback)
    HAL_CAN_RxFifo0MsgPendingCallback        0x0800083d   Thumb Code   110  main.o(i.HAL_CAN_RxFifo0MsgPendingCallback)
    HAL_CAN_RxFifo1FullCallback              0x080008b9   Thumb Code     2  stm32f1xx_hal_can.o(i.HAL_CAN_RxFifo1FullCallback)
    HAL_CAN_RxFifo1MsgPendingCallback        0x080008bb   Thumb Code     2  stm32f1xx_hal_can.o(i.HAL_CAN_RxFifo1MsgPendingCallback)
    HAL_CAN_SleepCallback                    0x080008bd   Thumb Code     2  stm32f1xx_hal_can.o(i.HAL_CAN_SleepCallback)
    HAL_CAN_Start                            0x080008c1   Thumb Code    88  stm32f1xx_hal_can.o(i.HAL_CAN_Start)
    HAL_CAN_TxMailbox0AbortCallback          0x08000919   Thumb Code     2  stm32f1xx_hal_can.o(i.HAL_CAN_TxMailbox0AbortCallback)
    HAL_CAN_TxMailbox0CompleteCallback       0x0800091b   Thumb Code     2  stm32f1xx_hal_can.o(i.HAL_CAN_TxMailbox0CompleteCallback)
    HAL_CAN_TxMailbox1AbortCallback          0x0800091d   Thumb Code     2  stm32f1xx_hal_can.o(i.HAL_CAN_TxMailbox1AbortCallback)
    HAL_CAN_TxMailbox1CompleteCallback       0x0800091f   Thumb Code     2  stm32f1xx_hal_can.o(i.HAL_CAN_TxMailbox1CompleteCallback)
    HAL_CAN_TxMailbox2AbortCallback          0x08000921   Thumb Code     2  stm32f1xx_hal_can.o(i.HAL_CAN_TxMailbox2AbortCallback)
    HAL_CAN_TxMailbox2CompleteCallback       0x08000923   Thumb Code     2  stm32f1xx_hal_can.o(i.HAL_CAN_TxMailbox2CompleteCallback)
    HAL_CAN_WakeUpFromRxMsgCallback          0x08000925   Thumb Code     2  stm32f1xx_hal_can.o(i.HAL_CAN_WakeUpFromRxMsgCallback)
    HAL_Delay                                0x08000929   Thumb Code    32  stm32f1xx_hal.o(i.HAL_Delay)
    HAL_GPIO_EXTI_Callback                   0x0800094d   Thumb Code     2  stm32f1xx_hal_gpio.o(i.HAL_GPIO_EXTI_Callback)
    HAL_GPIO_EXTI_IRQHandler                 0x08000951   Thumb Code    18  stm32f1xx_hal_gpio.o(i.HAL_GPIO_EXTI_IRQHandler)
    HAL_GPIO_Init                            0x08000969   Thumb Code   446  stm32f1xx_hal_gpio.o(i.HAL_GPIO_Init)
    HAL_GPIO_ReadPin                         0x08000b49   Thumb Code    10  stm32f1xx_hal_gpio.o(i.HAL_GPIO_ReadPin)
    HAL_GPIO_TogglePin                       0x08000b53   Thumb Code    14  stm32f1xx_hal_gpio.o(i.HAL_GPIO_TogglePin)
    HAL_GPIO_WritePin                        0x08000b61   Thumb Code    10  stm32f1xx_hal_gpio.o(i.HAL_GPIO_WritePin)
    HAL_GetTick                              0x08000b6d   Thumb Code     6  stm32f1xx_hal.o(i.HAL_GetTick)
    HAL_IncTick                              0x08000b79   Thumb Code    12  stm32f1xx_hal.o(i.HAL_IncTick)
    HAL_Init                                 0x08000b89   Thumb Code    32  stm32f1xx_hal.o(i.HAL_Init)
    HAL_InitTick                             0x08000bad   Thumb Code    54  stm32f1xx_hal.o(i.HAL_InitTick)
    HAL_MspInit                              0x08000bed   Thumb Code    52  stm32f1xx_hal_msp.o(i.HAL_MspInit)
    HAL_NVIC_EnableIRQ                       0x08000c29   Thumb Code    26  stm32f1xx_hal_cortex.o(i.HAL_NVIC_EnableIRQ)
    HAL_NVIC_SetPriority                     0x08000c45   Thumb Code    60  stm32f1xx_hal_cortex.o(i.HAL_NVIC_SetPriority)
    HAL_NVIC_SetPriorityGrouping             0x08000c85   Thumb Code    26  stm32f1xx_hal_cortex.o(i.HAL_NVIC_SetPriorityGrouping)
    HAL_RCC_ClockConfig                      0x08000ca9   Thumb Code   280  stm32f1xx_hal_rcc.o(i.HAL_RCC_ClockConfig)
    HAL_RCC_GetPCLK1Freq                     0x08000dd5   Thumb Code    20  stm32f1xx_hal_rcc.o(i.HAL_RCC_GetPCLK1Freq)
    HAL_RCC_GetPCLK2Freq                     0x08000df5   Thumb Code    20  stm32f1xx_hal_rcc.o(i.HAL_RCC_GetPCLK2Freq)
    HAL_RCC_GetSysClockFreq                  0x08000e15   Thumb Code    74  stm32f1xx_hal_rcc.o(i.HAL_RCC_GetSysClockFreq)
    HAL_RCC_OscConfig                        0x08000e81   Thumb Code   778  stm32f1xx_hal_rcc.o(i.HAL_RCC_OscConfig)
    HAL_SYSTICK_Config                       0x080011a1   Thumb Code    40  stm32f1xx_hal_cortex.o(i.HAL_SYSTICK_Config)
    HAL_TIMEx_BreakCallback                  0x080011c9   Thumb Code     2  stm32f1xx_hal_tim_ex.o(i.HAL_TIMEx_BreakCallback)
    HAL_TIMEx_CommutCallback                 0x080011cb   Thumb Code     2  stm32f1xx_hal_tim_ex.o(i.HAL_TIMEx_CommutCallback)
    HAL_TIMEx_MasterConfigSynchronization    0x080011cd   Thumb Code    66  stm32f1xx_hal_tim_ex.o(i.HAL_TIMEx_MasterConfigSynchronization)
    HAL_TIM_Base_Init                        0x0800120f   Thumb Code    54  stm32f1xx_hal_tim.o(i.HAL_TIM_Base_Init)
    HAL_TIM_Base_MspInit                     0x08001245   Thumb Code   100  tim.o(i.HAL_TIM_Base_MspInit)
    HAL_TIM_Base_Start_IT                    0x080012b5   Thumb Code    34  stm32f1xx_hal_tim.o(i.HAL_TIM_Base_Start_IT)
    HAL_TIM_ConfigClockSource                0x080012d7   Thumb Code   214  stm32f1xx_hal_tim.o(i.HAL_TIM_ConfigClockSource)
    HAL_TIM_IC_CaptureCallback               0x080013ad   Thumb Code     2  stm32f1xx_hal_tim.o(i.HAL_TIM_IC_CaptureCallback)
    HAL_TIM_IRQHandler                       0x080013af   Thumb Code   358  stm32f1xx_hal_tim.o(i.HAL_TIM_IRQHandler)
    HAL_TIM_OC_DelayElapsedCallback          0x08001515   Thumb Code     2  stm32f1xx_hal_tim.o(i.HAL_TIM_OC_DelayElapsedCallback)
    HAL_TIM_PWM_PulseFinishedCallback        0x08001517   Thumb Code     2  stm32f1xx_hal_tim.o(i.HAL_TIM_PWM_PulseFinishedCallback)
    HAL_TIM_PeriodElapsedCallback            0x08001519   Thumb Code   134  tim.o(i.HAL_TIM_PeriodElapsedCallback)
    HAL_TIM_TriggerCallback                  0x080015c9   Thumb Code     2  stm32f1xx_hal_tim.o(i.HAL_TIM_TriggerCallback)
    HAL_UART_Init                            0x080015cb   Thumb Code    98  stm32f1xx_hal_uart.o(i.HAL_UART_Init)
    HAL_UART_MspInit                         0x0800162d   Thumb Code   156  usart.o(i.HAL_UART_MspInit)
    HAL_UART_Transmit                        0x080016d9   Thumb Code   186  stm32f1xx_hal_uart.o(i.HAL_UART_Transmit)
    HardFault_Handler                        0x08001793   Thumb Code     2  stm32f1xx_it.o(i.HardFault_Handler)
    I2C_Start                                0x08001795   Thumb Code    64  oled.o(i.I2C_Start)
    I2C_Stop                                 0x080017d9   Thumb Code    46  oled.o(i.I2C_Stop)
    I2C_WaitAck                              0x0800180d   Thumb Code    52  oled.o(i.I2C_WaitAck)
    IIC_delay                                0x08001845   Thumb Code    10  oled.o(i.IIC_delay)
    KEY1_StateRead                           0x08001851   Thumb Code    54  gpio.o(i.KEY1_StateRead)
    KEY2_StateRead                           0x0800188d   Thumb Code    54  gpio.o(i.KEY2_StateRead)
    MX_CAN_Init                              0x080018c9   Thumb Code    60  can.o(i.MX_CAN_Init)
    MX_GPIO_Init                             0x0800190d   Thumb Code   210  gpio.o(i.MX_GPIO_Init)
    MX_TIM2_Init                             0x080019f1   Thumb Code    98  tim.o(i.MX_TIM2_Init)
    MX_USART1_UART_Init                      0x08001a59   Thumb Code    48  usart.o(i.MX_USART1_UART_Init)
    MX_USART2_UART_Init                      0x08001a91   Thumb Code    48  usart.o(i.MX_USART2_UART_Init)
    MemManage_Handler                        0x08001ac9   Thumb Code     2  stm32f1xx_it.o(i.MemManage_Handler)
    Menu_key_set                             0x08001acd   Thumb Code    74  menu.o(i.Menu_key_set)
    NMI_Handler                              0x08001b1d   Thumb Code     2  stm32f1xx_it.o(i.NMI_Handler)
    OLED_Clear                               0x08001b21   Thumb Code    44  oled.o(i.OLED_Clear)
    OLED_ColorTurn                           0x08001b51   Thumb Code    24  oled.o(i.OLED_ColorTurn)
    OLED_DrawPoint                           0x08001b69   Thumb Code    56  oled.o(i.OLED_DrawPoint)
    OLED_Init                                0x08001ba5   Thumb Code   216  oled.o(i.OLED_Init)
    OLED_Pow                                 0x08001c7d   Thumb Code    16  oled.o(i.OLED_Pow)
    OLED_Refresh                             0x08001c8d   Thumb Code   104  oled.o(i.OLED_Refresh)
    OLED_ShowChar                            0x08001cf9   Thumb Code   212  oled.o(i.OLED_ShowChar)
    OLED_ShowNum                             0x08001ddd   Thumb Code   110  oled.o(i.OLED_ShowNum)
    OLED_ShowString                          0x08001e4b   Thumb Code    60  oled.o(i.OLED_ShowString)
    OLED_WR_Byte                             0x08001e87   Thumb Code    54  oled.o(i.OLED_WR_Byte)
    PendSV_Handler                           0x08001ebd   Thumb Code     2  stm32f1xx_it.o(i.PendSV_Handler)
    SVC_Handler                              0x08001ebf   Thumb Code     2  stm32f1xx_it.o(i.SVC_Handler)
    Send_Byte                                0x08001ec1   Thumb Code    80  oled.o(i.Send_Byte)
    SysTick_Handler                          0x08001f15   Thumb Code     4  stm32f1xx_it.o(i.SysTick_Handler)
    SystemClock_Config                       0x08001f19   Thumb Code    78  main.o(i.SystemClock_Config)
    SystemInit                               0x08001f69   Thumb Code    56  system_stm32f1xx.o(i.SystemInit)
    TIM2_IRQHandler                          0x08001fb1   Thumb Code     6  stm32f1xx_it.o(i.TIM2_IRQHandler)
    TIM_Base_SetConfig                       0x08001fbd   Thumb Code    94  stm32f1xx_hal_tim.o(i.TIM_Base_SetConfig)
    TIM_ETR_SetConfig                        0x08002029   Thumb Code    20  stm32f1xx_hal_tim.o(i.TIM_ETR_SetConfig)
    USB_LP_CAN1_RX0_IRQHandler               0x080021b1   Thumb Code     6  stm32f1xx_it.o(i.USB_LP_CAN1_RX0_IRQHandler)
    UsageFault_Handler                       0x080021bd   Thumb Code     2  stm32f1xx_it.o(i.UsageFault_Handler)
    __0printf$bare                           0x080021c1   Thumb Code     8  printfb.o(i.__0printf$bare)
    __1printf$bare                           0x080021c1   Thumb Code     0  printfb.o(i.__0printf$bare)
    __2printf                                0x080021c1   Thumb Code     0  printfb.o(i.__0printf$bare)
    __scatterload_copy                       0x080021f1   Thumb Code    14  handlers.o(i.__scatterload_copy)
    __scatterload_null                       0x080021ff   Thumb Code     2  handlers.o(i.__scatterload_null)
    __scatterload_zeroinit                   0x08002201   Thumb Code    14  handlers.o(i.__scatterload_zeroinit)
    filter0_init                             0x08002231   Thumb Code    54  can.o(i.filter0_init)
    fputc                                    0x0800226d   Thumb Code    20  usart.o(i.fputc)
    fun0                                     0x08002285   Thumb Code   132  menu.o(i.fun0)
    fun1                                     0x08002339   Thumb Code    24  menu.o(i.fun1)
    fun10                                    0x08002355   Thumb Code    24  menu.o(i.fun10)
    fun11                                    0x08002371   Thumb Code    24  menu.o(i.fun11)
    fun12                                    0x0800238d   Thumb Code    24  menu.o(i.fun12)
    fun13                                    0x080023a9   Thumb Code    24  menu.o(i.fun13)
    fun14                                    0x080023c5   Thumb Code    24  menu.o(i.fun14)
    fun15                                    0x080023e1   Thumb Code    24  menu.o(i.fun15)
    fun16                                    0x080023fd   Thumb Code    24  menu.o(i.fun16)
    fun17                                    0x08002419   Thumb Code   182  menu.o(i.fun17)
    fun18                                    0x08002521   Thumb Code    86  menu.o(i.fun18)
    fun19                                    0x080025ad   Thumb Code   144  menu.o(i.fun19)
    fun2                                     0x08002685   Thumb Code    24  menu.o(i.fun2)
    fun20                                    0x080026a1   Thumb Code    20  menu.o(i.fun20)
    fun21                                    0x080026c5   Thumb Code    20  menu.o(i.fun21)
    fun22                                    0x080026e9   Thumb Code    20  menu.o(i.fun22)
    fun23                                    0x0800270d   Thumb Code    20  menu.o(i.fun23)
    fun24                                    0x08002731   Thumb Code    20  menu.o(i.fun24)
    fun25                                    0x08002755   Thumb Code    20  menu.o(i.fun25)
    fun3                                     0x08002779   Thumb Code    24  menu.o(i.fun3)
    fun4                                     0x08002795   Thumb Code    24  menu.o(i.fun4)
    fun5                                     0x080027b1   Thumb Code    24  menu.o(i.fun5)
    fun6                                     0x080027cd   Thumb Code    38  menu.o(i.fun6)
    fun7                                     0x08002809   Thumb Code    24  menu.o(i.fun7)
    fun8                                     0x08002825   Thumb Code    24  menu.o(i.fun8)
    fun9                                     0x08002841   Thumb Code    24  menu.o(i.fun9)
    main                                     0x0800285d   Thumb Code   146  main.o(i.main)
    meun1_func                               0x08002921   Thumb Code    62  menu.o(i.meun1_func)
    meun2_func                               0x0800299d   Thumb Code    62  menu.o(i.meun2_func)
    meun3_func                               0x08002a21   Thumb Code    62  menu.o(i.meun3_func)
    meun4_func                               0x08002aa5   Thumb Code    62  menu.o(i.meun4_func)
    asc2_0806                                0x08002b28   Data         552  oled.o(.constdata)
    asc2_1206                                0x08002d50   Data        1140  oled.o(.constdata)
    asc2_1608                                0x080031c4   Data        1520  oled.o(.constdata)
    asc2_2412                                0x080037b4   Data        3420  oled.o(.constdata)
    Hzk1                                     0x08004510   Data         352  oled.o(.constdata)
    Hzk2                                     0x08004670   Data          72  oled.o(.constdata)
    Hzk3                                     0x080046b8   Data         128  oled.o(.constdata)
    Hzk4                                     0x08004738   Data         512  oled.o(.constdata)
    AHBPrescTable                            0x08004938   Data          16  system_stm32f1xx.o(.constdata)
    APBPrescTable                            0x08004948   Data           8  system_stm32f1xx.o(.constdata)
    Region$$Table$$Base                      0x08004950   Number         0  anon$$obj.o(Region$$Table)
    Region$$Table$$Limit                     0x08004970   Number         0  anon$$obj.o(Region$$Table)
    func_index                               0x20000000   Data           1  menu.o(.data)
    Get_key_next                             0x20000001   Data           1  menu.o(.data)
    Get_key_enter                            0x20000002   Data           1  menu.o(.data)
    current_operation_index                  0x20000004   Data           4  menu.o(.data)
    TxData2                                  0x20000008   Data           8  menu.o(.data)
    TxData5                                  0x20000010   Data           8  menu.o(.data)
    table                                    0x20000018   Data         208  menu.o(.data)
    TxData1                                  0x200000e8   Data           8  menu.o(.data)
    TxData3                                  0x200000f0   Data           8  menu.o(.data)
    TxData4                                  0x200000f8   Data           8  menu.o(.data)
    TxData6                                  0x20000100   Data           8  menu.o(.data)
    TxData7                                  0x20000108   Data           8  menu.o(.data)
    TxMailbox                                0x20000110   Data           4  main.o(.data)
    RxData                                   0x20000114   Data           8  main.o(.data)
    Data_Speeed                              0x2000011c   Data           8  main.o(.data)
    Data_current                             0x20000124   Data           8  main.o(.data)
    Data_1810                                0x2000012c   Data           8  main.o(.data)
    Data_1811                                0x20000134   Data           8  main.o(.data)
    minute                                   0x2000013c   Data           1  tim.o(.data)
    second                                   0x2000013d   Data           1  tim.o(.data)
    num1                                     0x2000013e   Data           2  tim.o(.data)
    Hour                                     0x20000140   Data           2  tim.o(.data)
    uwTickFreq                               0x20000144   Data           1  stm32f1xx_hal.o(.data)
    uwTickPrio                               0x20000148   Data           4  stm32f1xx_hal.o(.data)
    uwTick                                   0x2000014c   Data           4  stm32f1xx_hal.o(.data)
    SystemCoreClock                          0x20000150   Data           4  system_stm32f1xx.o(.data)
    __stdout                                 0x20000154   Data           4  stdout.o(.data)
    OLED_GRAM                                0x20000158   Data        7680  oled.o(.bss)
    TxHeader                                 0x20001f58   Data          24  main.o(.bss)
    RxHeader                                 0x20001f70   Data          28  main.o(.bss)
    hcan                                     0x20001f8c   Data          40  can.o(.bss)
    htim2                                    0x20001fb4   Data          64  tim.o(.bss)
    huart1                                   0x20001ff4   Data          64  usart.o(.bss)
    huart2                                   0x20002034   Data          64  usart.o(.bss)
    __initial_sp                             0x20002478   Data           0  startup_stm32f103xb.o(STACK)



==============================================================================

Memory Map of the image

  Image Entry point : 0x080000ed

  Load Region LR_IROM1 (Base: 0x08000000, Size: 0x00004ac8, Max: 0x00010000, ABSOLUTE, COMPRESSED[0x00004a58])

    Execution Region ER_IROM1 (Exec base: 0x08000000, Load base: 0x08000000, Size: 0x00004970, Max: 0x00010000, ABSOLUTE)

    Exec Addr    Load Addr    Size         Type   Attr      Idx    E Section Name        Object

    0x08000000   0x08000000   0x000000ec   Data   RO            3    RESET               startup_stm32f103xb.o
    0x080000ec   0x080000ec   0x00000000   Code   RO         3507  * .ARM.Collect$$$$00000000  mc_w.l(entry.o)
    0x080000ec   0x080000ec   0x00000004   Code   RO         3774    .ARM.Collect$$$$00000001  mc_w.l(entry2.o)
    0x080000f0   0x080000f0   0x00000004   Code   RO         3777    .ARM.Collect$$$$00000004  mc_w.l(entry5.o)
    0x080000f4   0x080000f4   0x00000000   Code   RO         3779    .ARM.Collect$$$$00000008  mc_w.l(entry7b.o)
    0x080000f4   0x080000f4   0x00000000   Code   RO         3781    .ARM.Collect$$$$0000000A  mc_w.l(entry8b.o)
    0x080000f4   0x080000f4   0x00000008   Code   RO         3782    .ARM.Collect$$$$0000000B  mc_w.l(entry9a.o)
    0x080000fc   0x080000fc   0x00000000   Code   RO         3784    .ARM.Collect$$$$0000000D  mc_w.l(entry10a.o)
    0x080000fc   0x080000fc   0x00000000   Code   RO         3786    .ARM.Collect$$$$0000000F  mc_w.l(entry11a.o)
    0x080000fc   0x080000fc   0x00000004   Code   RO         3775    .ARM.Collect$$$$00002712  mc_w.l(entry2.o)
    0x08000100   0x08000100   0x00000024   Code   RO            4    .text               startup_stm32f103xb.o
    0x08000124   0x08000124   0x00000024   Code   RO         3512    .text               mc_w.l(memseta.o)
    0x08000148   0x08000148   0x00000024   Code   RO         3804    .text               mc_w.l(init.o)
    0x0800016c   0x0800016c   0x00000056   Code   RO         3820    .text               mc_w.l(__dczerorl2.o)
    0x080001c2   0x080001c2   0x00000002   Code   RO          777    i.BusFault_Handler  stm32f1xx_it.o
    0x080001c4   0x080001c4   0x00000002   Code   RO          778    i.DebugMon_Handler  stm32f1xx_it.o
    0x080001c6   0x080001c6   0x00000016   Code   RO          779    i.EXTI15_10_IRQHandler  stm32f1xx_it.o
    0x080001dc   0x080001dc   0x00000002   Code   RO          511    i.Error_Handler     main.o
    0x080001de   0x080001de   0x00000024   Code   RO         1010    i.HAL_CAN_ActivateNotification  stm32f1xx_hal_can.o
    0x08000202   0x08000202   0x000000c8   Code   RO         1011    i.HAL_CAN_AddTxMessage  stm32f1xx_hal_can.o
    0x080002ca   0x080002ca   0x00000002   PAD
    0x080002cc   0x080002cc   0x000000ee   Code   RO         1012    i.HAL_CAN_ConfigFilter  stm32f1xx_hal_can.o
    0x080003ba   0x080003ba   0x00000002   Code   RO         1015    i.HAL_CAN_ErrorCallback  stm32f1xx_hal_can.o
    0x080003bc   0x080003bc   0x000000e8   Code   RO         1018    i.HAL_CAN_GetRxMessage  stm32f1xx_hal_can.o
    0x080004a4   0x080004a4   0x000001fc   Code   RO         1022    i.HAL_CAN_IRQHandler  stm32f1xx_hal_can.o
    0x080006a0   0x080006a0   0x0000011a   Code   RO         1023    i.HAL_CAN_Init      stm32f1xx_hal_can.o
    0x080007ba   0x080007ba   0x00000002   PAD
    0x080007bc   0x080007bc   0x0000007c   Code   RO          620    i.HAL_CAN_MspInit   can.o
    0x08000838   0x08000838   0x00000002   Code   RO         1030    i.HAL_CAN_RxFifo0FullCallback  stm32f1xx_hal_can.o
    0x0800083a   0x0800083a   0x00000002   PAD
    0x0800083c   0x0800083c   0x0000007c   Code   RO          512    i.HAL_CAN_RxFifo0MsgPendingCallback  main.o
    0x080008b8   0x080008b8   0x00000002   Code   RO         1032    i.HAL_CAN_RxFifo1FullCallback  stm32f1xx_hal_can.o
    0x080008ba   0x080008ba   0x00000002   Code   RO         1033    i.HAL_CAN_RxFifo1MsgPendingCallback  stm32f1xx_hal_can.o
    0x080008bc   0x080008bc   0x00000002   Code   RO         1034    i.HAL_CAN_SleepCallback  stm32f1xx_hal_can.o
    0x080008be   0x080008be   0x00000002   PAD
    0x080008c0   0x080008c0   0x00000058   Code   RO         1035    i.HAL_CAN_Start     stm32f1xx_hal_can.o
    0x08000918   0x08000918   0x00000002   Code   RO         1037    i.HAL_CAN_TxMailbox0AbortCallback  stm32f1xx_hal_can.o
    0x0800091a   0x0800091a   0x00000002   Code   RO         1038    i.HAL_CAN_TxMailbox0CompleteCallback  stm32f1xx_hal_can.o
    0x0800091c   0x0800091c   0x00000002   Code   RO         1039    i.HAL_CAN_TxMailbox1AbortCallback  stm32f1xx_hal_can.o
    0x0800091e   0x0800091e   0x00000002   Code   RO         1040    i.HAL_CAN_TxMailbox1CompleteCallback  stm32f1xx_hal_can.o
    0x08000920   0x08000920   0x00000002   Code   RO         1041    i.HAL_CAN_TxMailbox2AbortCallback  stm32f1xx_hal_can.o
    0x08000922   0x08000922   0x00000002   Code   RO         1042    i.HAL_CAN_TxMailbox2CompleteCallback  stm32f1xx_hal_can.o
    0x08000924   0x08000924   0x00000002   Code   RO         1044    i.HAL_CAN_WakeUpFromRxMsgCallback  stm32f1xx_hal_can.o
    0x08000926   0x08000926   0x00000002   PAD
    0x08000928   0x08000928   0x00000024   Code   RO         1250    i.HAL_Delay         stm32f1xx_hal.o
    0x0800094c   0x0800094c   0x00000002   Code   RO         1556    i.HAL_GPIO_EXTI_Callback  stm32f1xx_hal_gpio.o
    0x0800094e   0x0800094e   0x00000002   PAD
    0x08000950   0x08000950   0x00000018   Code   RO         1557    i.HAL_GPIO_EXTI_IRQHandler  stm32f1xx_hal_gpio.o
    0x08000968   0x08000968   0x000001e0   Code   RO         1558    i.HAL_GPIO_Init     stm32f1xx_hal_gpio.o
    0x08000b48   0x08000b48   0x0000000a   Code   RO         1560    i.HAL_GPIO_ReadPin  stm32f1xx_hal_gpio.o
    0x08000b52   0x08000b52   0x0000000e   Code   RO         1561    i.HAL_GPIO_TogglePin  stm32f1xx_hal_gpio.o
    0x08000b60   0x08000b60   0x0000000a   Code   RO         1562    i.HAL_GPIO_WritePin  stm32f1xx_hal_gpio.o
    0x08000b6a   0x08000b6a   0x00000002   PAD
    0x08000b6c   0x08000b6c   0x0000000c   Code   RO         1254    i.HAL_GetTick       stm32f1xx_hal.o
    0x08000b78   0x08000b78   0x00000010   Code   RO         1260    i.HAL_IncTick       stm32f1xx_hal.o
    0x08000b88   0x08000b88   0x00000024   Code   RO         1261    i.HAL_Init          stm32f1xx_hal.o
    0x08000bac   0x08000bac   0x00000040   Code   RO         1262    i.HAL_InitTick      stm32f1xx_hal.o
    0x08000bec   0x08000bec   0x0000003c   Code   RO          871    i.HAL_MspInit       stm32f1xx_hal_msp.o
    0x08000c28   0x08000c28   0x0000001a   Code   RO         1718    i.HAL_NVIC_EnableIRQ  stm32f1xx_hal_cortex.o
    0x08000c42   0x08000c42   0x00000002   PAD
    0x08000c44   0x08000c44   0x00000040   Code   RO         1724    i.HAL_NVIC_SetPriority  stm32f1xx_hal_cortex.o
    0x08000c84   0x08000c84   0x00000024   Code   RO         1725    i.HAL_NVIC_SetPriorityGrouping  stm32f1xx_hal_cortex.o
    0x08000ca8   0x08000ca8   0x0000012c   Code   RO         1418    i.HAL_RCC_ClockConfig  stm32f1xx_hal_rcc.o
    0x08000dd4   0x08000dd4   0x00000020   Code   RO         1425    i.HAL_RCC_GetPCLK1Freq  stm32f1xx_hal_rcc.o
    0x08000df4   0x08000df4   0x00000020   Code   RO         1426    i.HAL_RCC_GetPCLK2Freq  stm32f1xx_hal_rcc.o
    0x08000e14   0x08000e14   0x0000006c   Code   RO         1427    i.HAL_RCC_GetSysClockFreq  stm32f1xx_hal_rcc.o
    0x08000e80   0x08000e80   0x00000320   Code   RO         1430    i.HAL_RCC_OscConfig  stm32f1xx_hal_rcc.o
    0x080011a0   0x080011a0   0x00000028   Code   RO         1729    i.HAL_SYSTICK_Config  stm32f1xx_hal_cortex.o
    0x080011c8   0x080011c8   0x00000002   Code   RO         2895    i.HAL_TIMEx_BreakCallback  stm32f1xx_hal_tim_ex.o
    0x080011ca   0x080011ca   0x00000002   Code   RO         2896    i.HAL_TIMEx_CommutCallback  stm32f1xx_hal_tim_ex.o
    0x080011cc   0x080011cc   0x00000042   Code   RO         2913    i.HAL_TIMEx_MasterConfigSynchronization  stm32f1xx_hal_tim_ex.o
    0x0800120e   0x0800120e   0x00000036   Code   RO         2220    i.HAL_TIM_Base_Init  stm32f1xx_hal_tim.o
    0x08001244   0x08001244   0x00000070   Code   RO          668    i.HAL_TIM_Base_MspInit  tim.o
    0x080012b4   0x080012b4   0x00000022   Code   RO         2225    i.HAL_TIM_Base_Start_IT  stm32f1xx_hal_tim.o
    0x080012d6   0x080012d6   0x000000d6   Code   RO         2229    i.HAL_TIM_ConfigClockSource  stm32f1xx_hal_tim.o
    0x080013ac   0x080013ac   0x00000002   Code   RO         2249    i.HAL_TIM_IC_CaptureCallback  stm32f1xx_hal_tim.o
    0x080013ae   0x080013ae   0x00000166   Code   RO         2263    i.HAL_TIM_IRQHandler  stm32f1xx_hal_tim.o
    0x08001514   0x08001514   0x00000002   Code   RO         2266    i.HAL_TIM_OC_DelayElapsedCallback  stm32f1xx_hal_tim.o
    0x08001516   0x08001516   0x00000002   Code   RO         2293    i.HAL_TIM_PWM_PulseFinishedCallback  stm32f1xx_hal_tim.o
    0x08001518   0x08001518   0x000000b0   Code   RO          669    i.HAL_TIM_PeriodElapsedCallback  tim.o
    0x080015c8   0x080015c8   0x00000002   Code   RO         2306    i.HAL_TIM_TriggerCallback  stm32f1xx_hal_tim.o
    0x080015ca   0x080015ca   0x00000062   Code   RO         3171    i.HAL_UART_Init     stm32f1xx_hal_uart.o
    0x0800162c   0x0800162c   0x000000ac   Code   RO          718    i.HAL_UART_MspInit  usart.o
    0x080016d8   0x080016d8   0x000000ba   Code   RO         3179    i.HAL_UART_Transmit  stm32f1xx_hal_uart.o
    0x08001792   0x08001792   0x00000002   Code   RO          780    i.HardFault_Handler  stm32f1xx_it.o
    0x08001794   0x08001794   0x00000044   Code   RO           13    i.I2C_Start         oled.o
    0x080017d8   0x080017d8   0x00000034   Code   RO           14    i.I2C_Stop          oled.o
    0x0800180c   0x0800180c   0x00000038   Code   RO           15    i.I2C_WaitAck       oled.o
    0x08001844   0x08001844   0x0000000a   Code   RO           16    i.IIC_delay         oled.o
    0x0800184e   0x0800184e   0x00000002   PAD
    0x08001850   0x08001850   0x0000003c   Code   RO          583    i.KEY1_StateRead    gpio.o
    0x0800188c   0x0800188c   0x0000003c   Code   RO          584    i.KEY2_StateRead    gpio.o
    0x080018c8   0x080018c8   0x00000044   Code   RO          621    i.MX_CAN_Init       can.o
    0x0800190c   0x0800190c   0x000000e4   Code   RO          585    i.MX_GPIO_Init      gpio.o
    0x080019f0   0x080019f0   0x00000068   Code   RO          670    i.MX_TIM2_Init      tim.o
    0x08001a58   0x08001a58   0x00000038   Code   RO          719    i.MX_USART1_UART_Init  usart.o
    0x08001a90   0x08001a90   0x00000038   Code   RO          720    i.MX_USART2_UART_Init  usart.o
    0x08001ac8   0x08001ac8   0x00000002   Code   RO          781    i.MemManage_Handler  stm32f1xx_it.o
    0x08001aca   0x08001aca   0x00000002   PAD
    0x08001acc   0x08001acc   0x00000050   Code   RO          284    i.Menu_key_set      menu.o
    0x08001b1c   0x08001b1c   0x00000002   Code   RO          782    i.NMI_Handler       stm32f1xx_it.o
    0x08001b1e   0x08001b1e   0x00000002   PAD
    0x08001b20   0x08001b20   0x00000030   Code   RO           17    i.OLED_Clear        oled.o
    0x08001b50   0x08001b50   0x00000018   Code   RO           20    i.OLED_ColorTurn    oled.o
    0x08001b68   0x08001b68   0x0000003c   Code   RO           25    i.OLED_DrawPoint    oled.o
    0x08001ba4   0x08001ba4   0x000000d8   Code   RO           26    i.OLED_Init         oled.o
    0x08001c7c   0x08001c7c   0x00000010   Code   RO           27    i.OLED_Pow          oled.o
    0x08001c8c   0x08001c8c   0x0000006c   Code   RO           28    i.OLED_Refresh      oled.o
    0x08001cf8   0x08001cf8   0x000000e4   Code   RO           30    i.OLED_ShowChar     oled.o
    0x08001ddc   0x08001ddc   0x0000006e   Code   RO           32    i.OLED_ShowNum      oled.o
    0x08001e4a   0x08001e4a   0x0000003c   Code   RO           34    i.OLED_ShowString   oled.o
    0x08001e86   0x08001e86   0x00000036   Code   RO           35    i.OLED_WR_Byte      oled.o
    0x08001ebc   0x08001ebc   0x00000002   Code   RO          783    i.PendSV_Handler    stm32f1xx_it.o
    0x08001ebe   0x08001ebe   0x00000002   Code   RO          784    i.SVC_Handler       stm32f1xx_it.o
    0x08001ec0   0x08001ec0   0x00000054   Code   RO           36    i.Send_Byte         oled.o
    0x08001f14   0x08001f14   0x00000004   Code   RO          785    i.SysTick_Handler   stm32f1xx_it.o
    0x08001f18   0x08001f18   0x0000004e   Code   RO          513    i.SystemClock_Config  main.o
    0x08001f66   0x08001f66   0x00000002   PAD
    0x08001f68   0x08001f68   0x00000048   Code   RO         3473    i.SystemInit        system_stm32f1xx.o
    0x08001fb0   0x08001fb0   0x0000000c   Code   RO          786    i.TIM2_IRQHandler   stm32f1xx_it.o
    0x08001fbc   0x08001fbc   0x0000006c   Code   RO         2308    i.TIM_Base_SetConfig  stm32f1xx_hal_tim.o
    0x08002028   0x08002028   0x00000014   Code   RO         2319    i.TIM_ETR_SetConfig  stm32f1xx_hal_tim.o
    0x0800203c   0x0800203c   0x00000010   Code   RO         2320    i.TIM_ITRx_SetConfig  stm32f1xx_hal_tim.o
    0x0800204c   0x0800204c   0x00000022   Code   RO         2326    i.TIM_TI1_ConfigInputStage  stm32f1xx_hal_tim.o
    0x0800206e   0x0800206e   0x00000024   Code   RO         2328    i.TIM_TI2_ConfigInputStage  stm32f1xx_hal_tim.o
    0x08002092   0x08002092   0x00000002   PAD
    0x08002094   0x08002094   0x000000b8   Code   RO         3197    i.UART_SetConfig    stm32f1xx_hal_uart.o
    0x0800214c   0x0800214c   0x00000064   Code   RO         3199    i.UART_WaitOnFlagUntilTimeout  stm32f1xx_hal_uart.o
    0x080021b0   0x080021b0   0x0000000c   Code   RO          787    i.USB_LP_CAN1_RX0_IRQHandler  stm32f1xx_it.o
    0x080021bc   0x080021bc   0x00000002   Code   RO          788    i.UsageFault_Handler  stm32f1xx_it.o
    0x080021be   0x080021be   0x00000002   PAD
    0x080021c0   0x080021c0   0x00000010   Code   RO         3515    i.__0printf$bare    mc_w.l(printfb.o)
    0x080021d0   0x080021d0   0x00000020   Code   RO         1731    i.__NVIC_SetPriority  stm32f1xx_hal_cortex.o
    0x080021f0   0x080021f0   0x0000000e   Code   RO         3814    i.__scatterload_copy  mc_w.l(handlers.o)
    0x080021fe   0x080021fe   0x00000002   Code   RO         3815    i.__scatterload_null  mc_w.l(handlers.o)
    0x08002200   0x08002200   0x0000000e   Code   RO         3816    i.__scatterload_zeroinit  mc_w.l(handlers.o)
    0x0800220e   0x0800220e   0x00000022   Code   RO         3522    i._printf_core      mc_w.l(printfb.o)
    0x08002230   0x08002230   0x0000003c   Code   RO          622    i.filter0_init      can.o
    0x0800226c   0x0800226c   0x00000018   Code   RO          722    i.fputc             usart.o
    0x08002284   0x08002284   0x000000b4   Code   RO          285    i.fun0              menu.o
    0x08002338   0x08002338   0x0000001c   Code   RO          286    i.fun1              menu.o
    0x08002354   0x08002354   0x0000001c   Code   RO          287    i.fun10             menu.o
    0x08002370   0x08002370   0x0000001c   Code   RO          288    i.fun11             menu.o
    0x0800238c   0x0800238c   0x0000001c   Code   RO          289    i.fun12             menu.o
    0x080023a8   0x080023a8   0x0000001c   Code   RO          290    i.fun13             menu.o
    0x080023c4   0x080023c4   0x0000001c   Code   RO          291    i.fun14             menu.o
    0x080023e0   0x080023e0   0x0000001c   Code   RO          292    i.fun15             menu.o
    0x080023fc   0x080023fc   0x0000001c   Code   RO          293    i.fun16             menu.o
    0x08002418   0x08002418   0x00000108   Code   RO          294    i.fun17             menu.o
    0x08002520   0x08002520   0x0000008c   Code   RO          295    i.fun18             menu.o
    0x080025ac   0x080025ac   0x000000d8   Code   RO          296    i.fun19             menu.o
    0x08002684   0x08002684   0x0000001c   Code   RO          297    i.fun2              menu.o
    0x080026a0   0x080026a0   0x00000024   Code   RO          298    i.fun20             menu.o
    0x080026c4   0x080026c4   0x00000024   Code   RO          299    i.fun21             menu.o
    0x080026e8   0x080026e8   0x00000024   Code   RO          300    i.fun22             menu.o
    0x0800270c   0x0800270c   0x00000024   Code   RO          301    i.fun23             menu.o
    0x08002730   0x08002730   0x00000024   Code   RO          302    i.fun24             menu.o
    0x08002754   0x08002754   0x00000024   Code   RO          303    i.fun25             menu.o
    0x08002778   0x08002778   0x0000001c   Code   RO          304    i.fun3              menu.o
    0x08002794   0x08002794   0x0000001c   Code   RO          305    i.fun4              menu.o
    0x080027b0   0x080027b0   0x0000001c   Code   RO          306    i.fun5              menu.o
    0x080027cc   0x080027cc   0x0000003c   Code   RO          307    i.fun6              menu.o
    0x08002808   0x08002808   0x0000001c   Code   RO          308    i.fun7              menu.o
    0x08002824   0x08002824   0x0000001c   Code   RO          309    i.fun8              menu.o
    0x08002840   0x08002840   0x0000001c   Code   RO          310    i.fun9              menu.o
    0x0800285c   0x0800285c   0x000000c4   Code   RO          514    i.main              main.o
    0x08002920   0x08002920   0x0000007c   Code   RO          311    i.meun1_func        menu.o
    0x0800299c   0x0800299c   0x00000084   Code   RO          312    i.meun2_func        menu.o
    0x08002a20   0x08002a20   0x00000084   Code   RO          313    i.meun3_func        menu.o
    0x08002aa4   0x08002aa4   0x00000084   Code   RO          314    i.meun4_func        menu.o
    0x08002b28   0x08002b28   0x00001e10   Data   RO           38    .constdata          oled.o
    0x08004938   0x08004938   0x00000010   Data   RO         3474    .constdata          system_stm32f1xx.o
    0x08004948   0x08004948   0x00000008   Data   RO         3475    .constdata          system_stm32f1xx.o
    0x08004950   0x08004950   0x00000020   Data   RO         3812    Region$$Table       anon$$obj.o


    Execution Region RW_IRAM1 (Exec base: 0x20000000, Load base: 0x08004970, Size: 0x00002478, Max: 0x00005000, ABSOLUTE, COMPRESSED[0x000000e8])

    Exec Addr    Load Addr    Size         Type   Attr      Idx    E Section Name        Object

    0x20000000   COMPRESSED   0x000000e8   Data   RW          315    .data               menu.o
    0x200000e8   COMPRESSED   0x00000008   Data   RW          316    .data               menu.o
    0x200000f0   COMPRESSED   0x00000008   Data   RW          317    .data               menu.o
    0x200000f8   COMPRESSED   0x00000008   Data   RW          318    .data               menu.o
    0x20000100   COMPRESSED   0x00000008   Data   RW          319    .data               menu.o
    0x20000108   COMPRESSED   0x00000008   Data   RW          320    .data               menu.o
    0x20000110   COMPRESSED   0x0000001c   Data   RW          517    .data               main.o
    0x2000012c   COMPRESSED   0x00000008   Data   RW          519    .data               main.o
    0x20000134   COMPRESSED   0x00000008   Data   RW          520    .data               main.o
    0x2000013c   COMPRESSED   0x00000006   Data   RW          672    .data               tim.o
    0x20000142   COMPRESSED   0x00000002   PAD
    0x20000144   COMPRESSED   0x0000000c   Data   RW         1268    .data               stm32f1xx_hal.o
    0x20000150   COMPRESSED   0x00000004   Data   RW         3476    .data               system_stm32f1xx.o
    0x20000154   COMPRESSED   0x00000004   Data   RW         3788    .data               mc_w.l(stdout.o)
    0x20000158        -       0x00001e00   Zero   RW           37    .bss                oled.o
    0x20001f58        -       0x00000034   Zero   RW          515    .bss                main.o
    0x20001f8c        -       0x00000028   Zero   RW          623    .bss                can.o
    0x20001fb4        -       0x00000040   Zero   RW          671    .bss                tim.o
    0x20001ff4        -       0x00000080   Zero   RW          723    .bss                usart.o
    0x20002074   COMPRESSED   0x00000004   PAD
    0x20002078        -       0x00000400   Zero   RW            1    STACK               startup_stm32f103xb.o


==============================================================================

Image component sizes


      Code (inc. data)   RO Data    RW Data    ZI Data      Debug   Object Name

       252         26          0          0         40       2222   can.o
       348         30          0          0          0       2193   gpio.o
       400         64          0         44         52       5226   main.o
      2096        712          0        272          0      15155   menu.o
      1194         46       7696          0       7680     441678   oled.o
        36          8        236          0       1024        816   startup_stm32f103xb.o
       164         28          0         12          0       5997   stm32f1xx_hal.o
      1608          0          0          0          0      13883   stm32f1xx_hal_can.o
       198         14          0          0          0      29007   stm32f1xx_hal_cortex.o
       540         40          0          0          0       5312   stm32f1xx_hal_gpio.o
         0          0          0          0          0     426772   stm32f1xx_hal_gpio_ex.o
        60          8          0          0          0        894   stm32f1xx_hal_msp.o
      1272        100          0          0          0       5260   stm32f1xx_hal_rcc.o
       882         14          0          0          0       9717   stm32f1xx_hal_tim.o
        70          0          0          0          0       2397   stm32f1xx_hal_tim_ex.o
       568          6          0          0          0       3984   stm32f1xx_hal_uart.o
        66         12          0          0          0       5376   stm32f1xx_it.o
        72         16         24          4          0       1219   system_stm32f1xx.o
       392         60          0          6         64       2650   tim.o
       308         36          0          0        128       2943   usart.o

    ----------------------------------------------------------------------
     10554       1220       7988        340       8992     982701   Object Totals
         0          0         32          0          0          0   (incl. Generated)
        28          0          0          2          4          0   (incl. Padding)

    ----------------------------------------------------------------------

      Code (inc. data)   RO Data    RW Data    ZI Data      Debug   Library Member Name

        86          0          0          0          0          0   __dczerorl2.o
         0          0          0          0          0          0   entry.o
         0          0          0          0          0          0   entry10a.o
         0          0          0          0          0          0   entry11a.o
         8          4          0          0          0          0   entry2.o
         4          0          0          0          0          0   entry5.o
         0          0          0          0          0          0   entry7b.o
         0          0          0          0          0          0   entry8b.o
         8          4          0          0          0          0   entry9a.o
        30          0          0          0          0          0   handlers.o
        36          8          0          0          0         68   init.o
        36          0          0          0          0        108   memseta.o
        50          8          0          0          0        152   printfb.o
         0          0          0          4          0          0   stdout.o

    ----------------------------------------------------------------------
       258         24          0          4          0        328   Library Totals
         0          0          0          0          0          0   (incl. Padding)

    ----------------------------------------------------------------------

      Code (inc. data)   RO Data    RW Data    ZI Data      Debug   Library Name

       258         24          0          4          0        328   mc_w.l

    ----------------------------------------------------------------------
       258         24          0          4          0        328   Library Totals

    ----------------------------------------------------------------------

==============================================================================


      Code (inc. data)   RO Data    RW Data    ZI Data      Debug   

     10812       1244       7988        344       8992     976293   Grand Totals
     10812       1244       7988        232       8992     976293   ELF Image Totals (compressed)
     10812       1244       7988        232          0          0   ROM Totals

==============================================================================

    Total RO  Size (Code + RO Data)                18800 (  18.36kB)
    Total RW  Size (RW Data + ZI Data)              9336 (   9.12kB)
    Total ROM Size (Code + RO Data + RW Data)      19032 (  18.59kB)

==============================================================================

